{
  "transactions": [
    {
      "hash": "0xa1427ef15c530609ffb2f93613d9376b6237aed2ebce9640481f2f34123f86c9",
      "transactionType": "CALL",
      "contractName": null,
      "contractAddress": "0xba5ed099633d3b313e4d5f7bdc1305d3c28ba5ed",
      "function": "deployCreate3(bytes32,bytes)",
      "arguments": [
        "0xfc58d5437c29d6132283719c6f4b25db8eb5133b005775c73498c8095e431bb9",
        "0x608060405234801561000f575f5ffd5b5061001f3361002460201b60201c565b610104565b61003261010060201b60201c565b156100aa577fffffffffffffffffffffffffffffffffffffffffffffffffffffffff7487392780541561006c57630dc149f05f526004601cfd5b8160601b60601c9150811560ff1b82178155815f7f8be0079c531659141344cd1fd0a4f28419497f9722a3daafe3b4186f6b6457e05f5fa3506100fd565b8060601b60601c9050807fffffffffffffffffffffffffffffffffffffffffffffffffffffffff7487392755805f7f8be0079c531659141344cd1fd0a4f28419497f9722a3daafe3b4186f6b6457e05f5fa35b50565b5f90565b610775806101115f395ff3fe6080604052600436106100a6575f3560e01c80638381f58a116100635780638381f58a146101305780638da5cb5b1461015a578063d09de08a14610184578063f04e283e1461019a578063f2fde38b146101b6578063fee81cf4146101d2576100a6565b806325692962146100aa5780632baeceb7146100b45780633fb5c1cb146100ca57806354d1f13d146100f257806354fd4d50146100fc578063715018a614610126575b5f5ffd5b6100b261020e565b005b3480156100bf575f5ffd5b506100c861025f565b005b3480156100d5575f5ffd5b506100f060048036038101906100eb9190610514565b610277565b005b6100fa610288565b005b348015610107575f5ffd5b506101106102c1565b60405161011d91906105af565b60405180910390f35b61012e6102fa565b005b34801561013b575f5ffd5b5061014461030d565b60405161015191906105de565b60405180910390f35b348015610165575f5ffd5b5061016e610312565b60405161017b9190610636565b60405180910390f35b34801561018f575f5ffd5b5061019861033a565b005b6101b460048036038101906101af9190610679565b610352565b005b6101d060048036038101906101cb9190610679565b610390565b005b3480156101dd575f5ffd5b506101f860048036038101906101f39190610679565b6103b9565b60405161020591906105de565b60405180910390f35b5f6102176103d2565b67ffffffffffffffff164201905063389a75e1600c52335f52806020600c2055337fdbf36a107da19e49527a7176a1babf963b4b0ff8cde35ee35d6cd8f1f9ac7e1d5f5fa250565b5f5f815480929190610270906106d1565b9190505550565b61027f6103dc565b805f8190555050565b63389a75e1600c52335f525f6020600c2055337ffa7b8eab7da67f412cc9575ed43464468f9bfbae89d1675917346ca6d8fe3c925f5fa2565b6040518060400160405280600d81526020017f312e302e352d436f756e7465720000000000000000000000000000000000000081525081565b6103026103dc565b61030b5f610413565b565b5f5481565b5f7fffffffffffffffffffffffffffffffffffffffffffffffffffffffff7487392754905090565b5f5f81548092919061034b906106f8565b9190505550565b61035a6103dc565b63389a75e1600c52805f526020600c20805442111561038057636f5e88185f526004601cfd5b5f81555061038d81610413565b50565b6103986103dc565b8060601b6103ad57637448fbae5f526004601cfd5b6103b681610413565b50565b5f63389a75e1600c52815f526020600c20549050919050565b5f6202a300905090565b7fffffffffffffffffffffffffffffffffffffffffffffffffffffffff74873927543314610411576382b429005f526004601cfd5b565b61041b6104d9565b15610480577fffffffffffffffffffffffffffffffffffffffffffffffffffffffff748739278160601b60601c91508181547f8be0079c531659141344cd1fd0a4f28419497f9722a3daafe3b4186f6b6457e05f5fa3811560ff1b82178155506104d6565b7fffffffffffffffffffffffffffffffffffffffffffffffffffffffff748739278160601b60601c91508181547f8be0079c531659141344cd1fd0a4f28419497f9722a3daafe3b4186f6b6457e05f5fa3818155505b50565b5f90565b5f5ffd5b5f819050919050565b6104f3816104e1565b81146104fd575f5ffd5b50565b5f8135905061050e816104ea565b92915050565b5f60208284031215610529576105286104dd565b5b5f61053684828501610500565b91505092915050565b5f81519050919050565b5f82825260208201905092915050565b8281835e5f83830152505050565b5f601f19601f8301169050919050565b5f6105818261053f565b61058b8185610549565b935061059b818560208601610559565b6105a481610567565b840191505092915050565b5f6020820190508181035f8301526105c78184610577565b905092915050565b6105d8816104e1565b82525050565b5f6020820190506105f15f8301846105cf565b92915050565b5f73ffffffffffffffffffffffffffffffffffffffff82169050919050565b5f610620826105f7565b9050919050565b61063081610616565b82525050565b5f6020820190506106495f830184610627565b92915050565b61065881610616565b8114610662575f5ffd5b50565b5f813590506106738161064f565b92915050565b5f6020828403121561068e5761068d6104dd565b5b5f61069b84828501610665565b91505092915050565b7f4e487b71000000000000000000000000000000000000000000000000000000005f52601160045260245ffd5b5f6106db826104e1565b91505f82036106ed576106ec6106a4565b5b600182039050919050565b5f610702826104e1565b91507fffffffffffffffffffffffffffffffffffffffffffffffffffffffffffffffff8203610734576107336106a4565b5b60018201905091905056fea2646970667358221220ad134385394efbcb737d4fc3039f89646c69129f0e77855ee404d8fada5912c064736f6c634300081d0033"
      ],
      "transaction": {
        "from": "0xfc58d5437c29d6132283719c6f4b25db8eb5133b",
        "to": "0xba5ed099633d3b313e4d5f7bdc1305d3c28ba5ed",
        "gas": "0xb5840",
        "value": "0x0",
        "input": "0x9c36a286fc58d5437c29d6132283719c6f4b25db8eb5133b005775c73498c8095e431bb900000000000000000000000000000000000000000000000000000000000000400000000000000000000000000000000000000000000000000000000000000886608060405234801561000f575f5ffd5b5061001f3361002460201b60201c565b610104565b61003261010060201b60201c565b156100aa577fffffffffffffffffffffffffffffffffffffffffffffffffffffffff7487392780541561006c57630dc149f05f526004601cfd5b8160601b60601c9150811560ff1b82178155815f7f8be0079c531659141344cd1fd0a4f28419497f9722a3daafe3b4186f6b6457e05f5fa3506100fd565b8060601b60601c9050807fffffffffffffffffffffffffffffffffffffffffffffffffffffffff7487392755805f7f8be0079c531659141344cd1fd0a4f28419497f9722a3daafe3b4186f6b6457e05f5fa35b50565b5f90565b610775806101115f395ff3fe6080604052600436106100a6575f3560e01c80638381f58a116100635780638381f58a146101305780638da5cb5b1461015a578063d09de08a14610184578063f04e283e1461019a578063f2fde38b146101b6578063fee81cf4146101d2576100a6565b806325692962146100aa5780632baeceb7146100b45780633fb5c1cb146100ca57806354d1f13d146100f257806354fd4d50146100fc578063715018a614610126575b5f5ffd5b6100b261020e565b005b3480156100bf575f5ffd5b506100c861025f565b005b3480156100d5575f5ffd5b506100f060048036038101906100eb9190610514565b610277565b005b6100fa610288565b005b348015610107575f5ffd5b506101106102c1565b60405161011d91906105af565b60405180910390f35b61012e6102fa565b005b34801561013b575f5ffd5b5061014461030d565b60405161015191906105de565b60405180910390f35b348015610165575f5ffd5b5061016e610312565b60405161017b9190610636565b60405180910390f35b34801561018f575f5ffd5b5061019861033a565b005b6101b460048036038101906101af9190610679565b610352565b005b6101d060048036038101906101cb9190610679565b610390565b005b3480156101dd575f5ffd5b506101f860048036038101906101f39190610679565b6103b9565b60405161020591906105de565b60405180910390f35b5f6102176103d2565b67ffffffffffffffff164201905063389a75e1600c52335f52806020600c2055337fdbf36a107da19e49527a7176a1babf963b4b0ff8cde35ee35d6cd8f1f9ac7e1d5f5fa250565b5f5f815480929190610270906106d1565b9190505550565b61027f6103dc565b805f8190555050565b63389a75e1600c52335f525f6020600c2055337ffa7b8eab7da67f412cc9575ed43464468f9bfbae89d1675917346ca6d8fe3c925f5fa2565b6040518060400160405280600d81526020017f312e302e352d436f756e7465720000000000000000000000000000000000000081525081565b6103026103dc565b61030b5f610413565b565b5f5481565b5f7fffffffffffffffffffffffffffffffffffffffffffffffffffffffff7487392754905090565b5f5f81548092919061034b906106f8565b9190505550565b61035a6103dc565b63389a75e1600c52805f526020600c20805442111561038057636f5e88185f526004601cfd5b5f81555061038d81610413565b50565b6103986103dc565b8060601b6103ad57637448fbae5f526004601cfd5b6103b681610413565b50565b5f63389a75e1600c52815f526020600c20549050919050565b5f6202a300905090565b7fffffffffffffffffffffffffffffffffffffffffffffffffffffffff74873927543314610411576382b429005f526004601cfd5b565b61041b6104d9565b15610480577fffffffffffffffffffffffffffffffffffffffffffffffffffffffff748739278160601b60601c91508181547f8be0079c531659141344cd1fd0a4f28419497f9722a3daafe3b4186f6b6457e05f5fa3811560ff1b82178155506104d6565b7fffffffffffffffffffffffffffffffffffffffffffffffffffffffff748739278160601b60601c91508181547f8be0079c531659141344cd1fd0a4f28419497f9722a3daafe3b4186f6b6457e05f5fa3818155505b50565b5f90565b5f5ffd5b5f819050919050565b6104f3816104e1565b81146104fd575f5ffd5b50565b5f8135905061050e816104ea565b92915050565b5f60208284031215610529576105286104dd565b5b5f61053684828501610500565b91505092915050565b5f81519050919050565b5f82825260208201905092915050565b8281835e5f83830152505050565b5f601f19601f8301169050919050565b5f6105818261053f565b61058b8185610549565b935061059b818560208601610559565b6105a481610567565b840191505092915050565b5f6020820190508181035f8301526105c78184610577565b905092915050565b6105d8816104e1565b82525050565b5f6020820190506105f15f8301846105cf565b92915050565b5f73ffffffffffffffffffffffffffffffffffffffff82169050919050565b5f610620826105f7565b9050919050565b61063081610616565b82525050565b5f6020820190506106495f830184610627565b92915050565b61065881610616565b8114610662575f5ffd5b50565b5f813590506106738161064f565b92915050565b5f6020828403121561068e5761068d6104dd565b5b5f61069b84828501610665565b91505092915050565b7f4e487b71000000000000000000000000000000000000000000000000000000005f52601160045260245ffd5b5f6106db826104e1565b91505f82036106ed576106ec6106a4565b5b600182039050919050565b5f610702826104e1565b91507fffffffffffffffffffffffffffffffffffffffffffffffffffffffffffffffff8203610734576107336106a4565b5b60018201905091905056fea2646970667358221220ad134385394efbcb737d4fc3039f89646c69129f0e77855ee404d8fada5912c064736f6c634300081d00330000000000000000000000000000000000000000000000000000",
        "nonce": "0x1",
        "chainId": "0xaa36a7"
      },
      "additionalContracts": [
        {
          "transactionType": "CREATE2",
          "address": "0x987542adf99057ae03b217f8b67835a123d0678f",
          "initCode": "0x67363d3d37363d34f03d5260086018f3"
        },
        {
          "transactionType": "CREATE",
          "address": "0x34126f66b3d86d20c35e2d0e94da4e5d25e6d64c",
          "initCode": "0x608060405234801561000f575f5ffd5b5061001f3361002460201b60201c565b610104565b61003261010060201b60201c565b156100aa577fffffffffffffffffffffffffffffffffffffffffffffffffffffffff7487392780541561006c57630dc149f05f526004601cfd5b8160601b60601c9150811560ff1b82178155815f7f8be0079c531659141344cd1fd0a4f28419497f9722a3daafe3b4186f6b6457e05f5fa3506100fd565b8060601b60601c9050807fffffffffffffffffffffffffffffffffffffffffffffffffffffffff7487392755805f7f8be0079c531659141344cd1fd0a4f28419497f9722a3daafe3b4186f6b6457e05f5fa35b50565b5f90565b610775806101115f395ff3fe6080604052600436106100a6575f3560e01c80638381f58a116100635780638381f58a146101305780638da5cb5b1461015a578063d09de08a14610184578063f04e283e1461019a578063f2fde38b146101b6578063fee81cf4146101d2576100a6565b806325692962146100aa5780632baeceb7146100b45780633fb5c1cb146100ca57806354d1f13d146100f257806354fd4d50146100fc578063715018a614610126575b5f5ffd5b6100b261020e565b005b3480156100bf575f5ffd5b506100c861025f565b005b3480156100d5575f5ffd5b506100f060048036038101906100eb9190610514565b610277565b005b6100fa610288565b005b348015610107575f5ffd5b506101106102c1565b60405161011d91906105af565b60405180910390f35b61012e6102fa565b005b34801561013b575f5ffd5b5061014461030d565b60405161015191906105de565b60405180910390f35b348015610165575f5ffd5b5061016e610312565b60405161017b9190610636565b60405180910390f35b34801561018f575f5ffd5b5061019861033a565b005b6101b460048036038101906101af9190610679565b610352565b005b6101d060048036038101906101cb9190610679565b610390565b005b3480156101dd575f5ffd5b506101f860048036038101906101f39190610679565b6103b9565b60405161020591906105de565b60405180910390f35b5f6102176103d2565b67ffffffffffffffff164201905063389a75e1600c52335f52806020600c2055337fdbf36a107da19e49527a7176a1babf963b4b0ff8cde35ee35d6cd8f1f9ac7e1d5f5fa250565b5f5f815480929190610270906106d1565b9190505550565b61027f6103dc565b805f8190555050565b63389a75e1600c52335f525f6020600c2055337ffa7b8eab7da67f412cc9575ed43464468f9bfbae89d1675917346ca6d8fe3c925f5fa2565b6040518060400160405280600d81526020017f312e302e352d436f756e7465720000000000000000000000000000000000000081525081565b6103026103dc565b61030b5f610413565b565b5f5481565b5f7fffffffffffffffffffffffffffffffffffffffffffffffffffffffff7487392754905090565b5f5f81548092919061034b906106f8565b9190505550565b61035a6103dc565b63389a75e1600c52805f526020600c20805442111561038057636f5e88185f526004601cfd5b5f81555061038d81610413565b50565b6103986103dc565b8060601b6103ad57637448fbae5f526004601cfd5b6103b681610413565b50565b5f63389a75e1600c52815f526020600c20549050919050565b5f6202a300905090565b7fffffffffffffffffffffffffffffffffffffffffffffffffffffffff74873927543314610411576382b429005f526004601cfd5b565b61041b6104d9565b15610480577fffffffffffffffffffffffffffffffffffffffffffffffffffffffff748739278160601b60601c91508181547f8be0079c531659141344cd1fd0a4f28419497f9722a3daafe3b4186f6b6457e05f5fa3811560ff1b82178155506104d6565b7fffffffffffffffffffffffffffffffffffffffffffffffffffffffff748739278160601b60601c91508181547f8be0079c531659141344cd1fd0a4f28419497f9722a3daafe3b4186f6b6457e05f5fa3818155505b50565b5f90565b5f5ffd5b5f819050919050565b6104f3816104e1565b81146104fd575f5ffd5b50565b5f8135905061050e816104ea565b92915050565b5f60208284031215610529576105286104dd565b5b5f61053684828501610500565b91505092915050565b5f81519050919050565b5f82825260208201905092915050565b8281835e5f83830152505050565b5f601f19601f8301169050919050565b5f6105818261053f565b61058b8185610549565b935061059b818560208601610559565b6105a481610567565b840191505092915050565b5f6020820190508181035f8301526105c78184610577565b905092915050565b6105d8816104e1565b82525050565b5f6020820190506105f15f8301846105cf565b92915050565b5f73ffffffffffffffffffffffffffffffffffffffff82169050919050565b5f610620826105f7565b9050919050565b61063081610616565b82525050565b5f6020820190506106495f830184610627565b92915050565b61065881610616565b8114610662575f5ffd5b50565b5f813590506106738161064f565b92915050565b5f6020828403121561068e5761068d6104dd565b5b5f61069b84828501610665565b91505092915050565b7f4e487b71000000000000000000000000000000000000000000000000000000005f52601160045260245ffd5b5f6106db826104e1565b91505f82036106ed576106ec6106a4565b5b600182039050919050565b5f610702826104e1565b91507fffffffffffffffffffffffffffffffffffffffffffffffffffffffffffffffff8203610734576107336106a4565b5b60018201905091905056fea2646970667358221220ad134385394efbcb737d4fc3039f89646c69129f0e77855ee404d8fada5912c064736f6c634300081d0033"
        }
      ],
      "isFixedGasLimit": false
    }
  ],
  "receipts": [
    {
      "status": "0x1",
      "cumulativeGasUsed": "0x122c57b",
      "logs": [
        {
          "address": "0xba5ed099633d3b313e4d5f7bdc1305d3c28ba5ed",
          "topics": [
            "0x2feea65dd4e9f9cbd86b74b7734210c59a1b2981b5b137bd0ee3e208200c9067",
            "0x000000000000000000000000987542adf99057ae03b217f8b67835a123d0678f",
            "0x0a9aff5d11fcc4ad4bdba2ee21224c654c0971ea073d15e10901088473c03408"
          ],
          "data": "0x",
          "blockHash": "0x502d00a392f0df3f35c8d22a45ca8c545bf7bf36bb8e5acd5d8385f9d0cbdcec",
          "blockNumber": "0x846f31",
          "transactionHash": "0xa1427ef15c530609ffb2f93613d9376b6237aed2ebce9640481f2f34123f86c9",
          "transactionIndex": "0x142",
          "logIndex": "0x17b",
          "removed": false
        },
        {
          "address": "0x34126f66b3d86d20c35e2d0e94da4e5d25e6d64c",
          "topics": [
            "0x8be0079c531659141344cd1fd0a4f28419497f9722a3daafe3b4186f6b6457e0",
            "0x0000000000000000000000000000000000000000000000000000000000000000",
            "0x000000000000000000000000987542adf99057ae03b217f8b67835a123d0678f"
          ],
          "data": "0x",
          "blockHash": "0x502d00a392f0df3f35c8d22a45ca8c545bf7bf36bb8e5acd5d8385f9d0cbdcec",
          "blockNumber": "0x846f31",
          "transactionHash": "0xa1427ef15c530609ffb2f93613d9376b6237aed2ebce9640481f2f34123f86c9",
          "transactionIndex": "0x142",
          "logIndex": "0x17c",
          "removed": false
        },
        {
          "address": "0xba5ed099633d3b313e4d5f7bdc1305d3c28ba5ed",
          "topics": [
            "0x4db17dd5e4732fb6da34a148104a592783ca119a1e7bb8829eba6cbadef0b511",
            "0x00000000000000000000000034126f66b3d86d20c35e2d0e94da4e5d25e6d64c"
          ],
          "data": "0x",
          "blockHash": "0x502d00a392f0df3f35c8d22a45ca8c545bf7bf36bb8e5acd5d8385f9d0cbdcec",
          "blockNumber": "0x846f31",
          "transactionHash": "0xa1427ef15c530609ffb2f93613d9376b6237aed2ebce9640481f2f34123f86c9",
          "transactionIndex": "0x142",
          "logIndex": "0x17d",
          "removed": false
        }
      ],
      "logsBloom": "0x00020000000000000000000000000000000000000000000000800000200000000000000000000000000200000000000000000000000004000000200000010000000000000000000010000002020000000003000000000000000000000000000000000000020000000000000000000800000000000020000000000000000080400000000000000200000000000000000000000000000000000000004000000000000000000000000000000000000000000000000000000000000000000000000000000000000040000200000000000000000000002020000000000010000020000000000000000200000000000000000200000000000000000000000000000000",
      "type": "0x2",
      "transactionHash": "0xa1427ef15c530609ffb2f93613d9376b6237aed2ebce9640481f2f34123f86c9",
      "transactionIndex": "0x142",
      "blockHash": "0x502d00a392f0df3f35c8d22a45ca8c545bf7bf36bb8e5acd5d8385f9d0cbdcec",
      "blockNumber": "0x846f31",
      "gasUsed": "0x836a0",
      "effectiveGasPrice": "0xa6b0a2",
      "from": "0xfc58d5437c29d6132283719c6f4b25db8eb5133b",
      "to": "0xba5ed099633d3b313e4d5f7bdc1305d3c28ba5ed",
      "contractAddress": null
    }
  ],
  "libraries": [],
  "pending": [],
  "returns": {},
  "timestamp": 1751497119,
  "chain": 11155111,
  "commit": "c250f9e"
}